{
  "abi": [
    {
      "inputs": [
        {
          "internalType": "uint256",
          "name": "_unlockTime",
          "type": "uint256"
        }
      ],
      "stateMutability": "payable",
      "type": "constructor"
    },
    {
      "anonymous": false,
      "inputs": [
        {
          "indexed": false,
          "internalType": "uint256",
          "name": "amount",
          "type": "uint256"
        },
        {
          "indexed": false,
          "internalType": "uint256",
          "name": "when",
          "type": "uint256"
        }
      ],
      "name": "Withdrawal",
      "type": "event"
    },
    {
      "inputs": [],
      "name": "getUnlockTime",
      "outputs": [
        {
          "internalType": "uint256",
          "name": "",
          "type": "uint256"
        }
      ],
      "stateMutability": "view",
      "type": "function"
    },
    {
      "inputs": [],
      "name": "owner",
      "outputs": [
        {
          "internalType": "address payable",
          "name": "",
          "type": "address"
        }
      ],
      "stateMutability": "view",
      "type": "function"
    },
    {
      "inputs": [],
      "name": "unlockTime",
      "outputs": [
        {
          "internalType": "uint256",
          "name": "",
          "type": "uint256"
        }
      ],
      "stateMutability": "view",
      "type": "function"
    },
    {
      "inputs": [],
      "name": "withdraw",
      "outputs": [],
      "stateMutability": "nonpayable",
      "type": "function"
    }
  ],
  "bytecode": {
    "object": "0x60806040526040516103bb3803806103bb8339810160408190526100229161009b565b8042106100815760405162461bcd60e51b815260206004820152602360248201527f556e6c6f636b2074696d652073686f756c6420626520696e207468652066757460448201526275726560e81b606482015260840160405180910390fd5b600055600180546001600160a01b031916331790556100b4565b6000602082840312156100ad57600080fd5b5051919050565b6102f8806100c36000396000f3fe608060405234801561001057600080fd5b506004361061004c5760003560e01c8063251c1aa3146100515780633ccfd60b1461006d578063602bc62b146100775780638da5cb5b1461007f575b600080fd5b61005a60005481565b6040519081526020015b60405180910390f35b6100756100c4565b005b61005a610237565b60015461009f9073ffffffffffffffffffffffffffffffffffffffff1681565b60405173ffffffffffffffffffffffffffffffffffffffff9091168152602001610064565b600054421015610135576040517f08c379a000000000000000000000000000000000000000000000000000000000815260206004820152601660248201527f596f752063616e2774207769746864726177207965740000000000000000000060448201526064015b60405180910390fd5b60015473ffffffffffffffffffffffffffffffffffffffff1633146101b6576040517f08c379a000000000000000000000000000000000000000000000000000000000815260206004820152601460248201527f596f75206172656e277420746865206f776e6572000000000000000000000000604482015260640161012c565b604080514781524260208201527fbf2ed60bd5b5965d685680c01195c9514e4382e28e3a5a2d2d5244bf59411b93910160405180910390a160015460405173ffffffffffffffffffffffffffffffffffffffff909116904780156108fc02916000818181858888f19350505050158015610234573d6000803e3d6000fd5b50565b60015460009073ffffffffffffffffffffffffffffffffffffffff1633146102bb576040517f08c379a000000000000000000000000000000000000000000000000000000000815260206004820152601460248201527f596f75206172656e277420746865206f776e6572000000000000000000000000604482015260640161012c565b506000549056fea2646970667358221220eeec17c6f67fb5b9070f796d829290b8bc374f391c0b7786b4ea93441cc18cb864736f6c63430008130033",
    "linkReferences": {}
  },
  "methodIdentifiers": {
    "getUnlockTime()": "602bc62b",
    "owner()": "8da5cb5b",
    "unlockTime()": "251c1aa3",
    "withdraw()": "3ccfd60b"
  },
  "id": 0
}